{
  "contractName": "Crowdsale",
  "abi": [
    {
      "constant": true,
      "inputs": [
        {
          "name": "_time",
          "type": "uint256"
        }
      ],
      "name": "isIco",
      "outputs": [
        {
          "name": "",
          "type": "bool"
        }
      ],
      "payable": false,
      "stateMutability": "pure",
      "type": "function"
    },
    {
      "constant": true,
      "inputs": [
        {
          "name": "_value",
          "type": "uint256"
        },
        {
          "name": "_time",
          "type": "uint256"
        }
      ],
      "name": "etherToTokens",
      "outputs": [
        {
          "name": "res",
          "type": "uint256"
        }
      ],
      "payable": false,
      "stateMutability": "view",
      "type": "function"
    },
    {
      "constant": true,
      "inputs": [],
      "name": "ICO_FINISH",
      "outputs": [
        {
          "name": "",
          "type": "uint256"
        }
      ],
      "payable": false,
      "stateMutability": "view",
      "type": "function"
    },
    {
      "constant": true,
      "inputs": [],
      "name": "ICO_MIN_CAP",
      "outputs": [
        {
          "name": "",
          "type": "uint256"
        }
      ],
      "payable": false,
      "stateMutability": "view",
      "type": "function"
    },
    {
      "constant": false,
      "inputs": [
        {
          "name": "_address",
          "type": "address"
        },
        {
          "name": "_ether",
          "type": "uint256"
        }
      ],
      "name": "ethDistibution",
      "outputs": [],
      "payable": false,
      "stateMutability": "nonpayable",
      "type": "function"
    },
    {
      "constant": true,
      "inputs": [],
      "name": "isIcoTrue",
      "outputs": [
        {
          "name": "",
          "type": "bool"
        }
      ],
      "payable": false,
      "stateMutability": "view",
      "type": "function"
    },
    {
      "constant": true,
      "inputs": [
        {
          "name": "_time",
          "type": "uint256"
        }
      ],
      "name": "isPreIco",
      "outputs": [
        {
          "name": "",
          "type": "bool"
        }
      ],
      "payable": false,
      "stateMutability": "pure",
      "type": "function"
    },
    {
      "constant": true,
      "inputs": [
        {
          "name": "_time",
          "type": "uint256"
        }
      ],
      "name": "preIcoTimeBasedBonus",
      "outputs": [
        {
          "name": "",
          "type": "uint256"
        }
      ],
      "payable": false,
      "stateMutability": "pure",
      "type": "function"
    },
    {
      "constant": true,
      "inputs": [],
      "name": "preIcoTokensSold",
      "outputs": [
        {
          "name": "",
          "type": "uint256"
        }
      ],
      "payable": false,
      "stateMutability": "view",
      "type": "function"
    },
    {
      "constant": true,
      "inputs": [],
      "name": "tokensSold",
      "outputs": [
        {
          "name": "",
          "type": "uint256"
        }
      ],
      "payable": false,
      "stateMutability": "view",
      "type": "function"
    },
    {
      "constant": false,
      "inputs": [],
      "name": "refund",
      "outputs": [],
      "payable": false,
      "stateMutability": "nonpayable",
      "type": "function"
    },
    {
      "constant": false,
      "inputs": [],
      "name": "acceptOwnership",
      "outputs": [],
      "payable": false,
      "stateMutability": "nonpayable",
      "type": "function"
    },
    {
      "constant": true,
      "inputs": [],
      "name": "tokenPrice",
      "outputs": [
        {
          "name": "",
          "type": "uint256"
        }
      ],
      "payable": false,
      "stateMutability": "view",
      "type": "function"
    },
    {
      "constant": true,
      "inputs": [],
      "name": "owner",
      "outputs": [
        {
          "name": "",
          "type": "address"
        }
      ],
      "payable": false,
      "stateMutability": "view",
      "type": "function"
    },
    {
      "constant": true,
      "inputs": [],
      "name": "PRE_ICO_MAX_CAP",
      "outputs": [
        {
          "name": "",
          "type": "uint256"
        }
      ],
      "payable": false,
      "stateMutability": "view",
      "type": "function"
    },
    {
      "constant": true,
      "inputs": [
        {
          "name": "_time",
          "type": "uint256"
        }
      ],
      "name": "icoTimeBasedBonus",
      "outputs": [
        {
          "name": "",
          "type": "uint256"
        }
      ],
      "payable": false,
      "stateMutability": "pure",
      "type": "function"
    },
    {
      "constant": true,
      "inputs": [],
      "name": "PRE_ICO_FINISH",
      "outputs": [
        {
          "name": "",
          "type": "uint256"
        }
      ],
      "payable": false,
      "stateMutability": "view",
      "type": "function"
    },
    {
      "constant": true,
      "inputs": [],
      "name": "icoTokensSold",
      "outputs": [
        {
          "name": "",
          "type": "uint256"
        }
      ],
      "payable": false,
      "stateMutability": "view",
      "type": "function"
    },
    {
      "constant": true,
      "inputs": [],
      "name": "isIcoAchieved",
      "outputs": [
        {
          "name": "",
          "type": "bool"
        }
      ],
      "payable": false,
      "stateMutability": "view",
      "type": "function"
    },
    {
      "constant": true,
      "inputs": [],
      "name": "ICO_MAX_CAP",
      "outputs": [
        {
          "name": "",
          "type": "uint256"
        }
      ],
      "payable": false,
      "stateMutability": "view",
      "type": "function"
    },
    {
      "constant": true,
      "inputs": [],
      "name": "ethCollected",
      "outputs": [
        {
          "name": "",
          "type": "uint256"
        }
      ],
      "payable": false,
      "stateMutability": "view",
      "type": "function"
    },
    {
      "constant": true,
      "inputs": [],
      "name": "ICO_START",
      "outputs": [
        {
          "name": "",
          "type": "uint256"
        }
      ],
      "payable": false,
      "stateMutability": "view",
      "type": "function"
    },
    {
      "constant": true,
      "inputs": [],
      "name": "PRE_ICO_START",
      "outputs": [
        {
          "name": "",
          "type": "uint256"
        }
      ],
      "payable": false,
      "stateMutability": "view",
      "type": "function"
    },
    {
      "constant": true,
      "inputs": [],
      "name": "newOwner",
      "outputs": [
        {
          "name": "",
          "type": "address"
        }
      ],
      "payable": false,
      "stateMutability": "view",
      "type": "function"
    },
    {
      "constant": false,
      "inputs": [
        {
          "name": "_newOwner",
          "type": "address"
        }
      ],
      "name": "transferOwnership",
      "outputs": [],
      "payable": false,
      "stateMutability": "nonpayable",
      "type": "function"
    },
    {
      "constant": true,
      "inputs": [],
      "name": "token",
      "outputs": [
        {
          "name": "",
          "type": "address"
        }
      ],
      "payable": false,
      "stateMutability": "view",
      "type": "function"
    },
    {
      "inputs": [
        {
          "name": "_tokenAddress",
          "type": "address"
        }
      ],
      "payable": false,
      "stateMutability": "nonpayable",
      "type": "constructor"
    },
    {
      "payable": true,
      "stateMutability": "payable",
      "type": "fallback"
    }
  ],
  "bytecode": "0x606060405260086002556000600655600060075560006008556000600955662386f26fc10000600a5561004b600254600a61021e64010000000002611247179091906401000000009004565b660598744385700081151561005c57fe5b04600b55341561006b57600080fd5b60405160208061157183398101604052808051906020019091905050336000806101000a81548173ffffffffffffffffffffffffffffffffffffffff021916908373ffffffffffffffffffffffffffffffffffffffff16021790555080600360006101000a81548173ffffffffffffffffffffffffffffffffffffffff021916908373ffffffffffffffffffffffffffffffffffffffff160217905550336000806101000a81548173ffffffffffffffffffffffffffffffffffffffff021916908373ffffffffffffffffffffffffffffffffffffffff160217905550600360009054906101000a900473ffffffffffffffffffffffffffffffffffffffff1673ffffffffffffffffffffffffffffffffffffffff16636596cff3306040518263ffffffff167c0100000000000000000000000000000000000000000000000000000000028152600401808273ffffffffffffffffffffffffffffffffffffffff1673ffffffffffffffffffffffffffffffffffffffff168152602001915050600060405180830381600087803b151561020457600080fd5b6102c65a03f1151561021557600080fd5b5050505061024f565b60008060008314156102335760019150610248565b82840a905083811015151561024457fe5b8091505b5092915050565b6113138061025e6000396000f300606060405260043610610154576000357c0100000000000000000000000000000000000000000000000000000000900463ffffffff1680630a1e71de146101a15780630fa95aee146101dc5780632ce0b4f61461021c57806331a3b8731461024557806338eee7f61461026e5780633fd0f727146102b0578063414b85e4146102dd57806346db1b361461031857806346e2a1741461034f578063518ab2a814610378578063590e1ae3146103a157806379ba5097146103b65780637ff9b596146103cb5780638da5cb5b146103f4578063993d13bd14610449578063a0608b0814610472578063a6024524146104a9578063aab725b3146104d2578063b7eac391146104fb578063bae99efc14610528578063bee2e13414610551578063d0ca12ba1461057a578063d4810b61146105a3578063d4ee1d90146105cc578063f2fde38b14610621578063fc0c546a1461065a575b61015d426106af565b8061016d575061016c426106de565b5b151561017857600080fd5b600a54341015151561018957600080fd5b610194333442610710565b151561019f57600080fd5b005b34156101ac57600080fd5b6101c260048080359060200190919050506106de565b604051808215151515815260200191505060405180910390f35b34156101e757600080fd5b6102066004808035906020019091908035906020019091905050610a52565b6040518082815260200191505060405180910390f35b341561022757600080fd5b61022f610ad7565b6040518082815260200191505060405180910390f35b341561025057600080fd5b610258610adf565b6040518082815260200191505060405180910390f35b341561027957600080fd5b6102ae600480803573ffffffffffffffffffffffffffffffffffffffff16906020019091908035906020019091905050610b0d565b005b34156102bb57600080fd5b6102c3610bbf565b604051808215151515815260200191505060405180910390f35b34156102e857600080fd5b6102fe60048080359060200190919050506106af565b604051808215151515815260200191505060405180910390f35b341561032357600080fd5b6103396004808035906020019091905050610c07565b6040518082815260200191505060405180910390f35b341561035a57600080fd5b610362610c28565b6040518082815260200191505060405180910390f35b341561038357600080fd5b61038b610c2e565b6040518082815260200191505060405180910390f35b34156103ac57600080fd5b6103b4610c34565b005b34156103c157600080fd5b6103c9610ed8565b005b34156103d657600080fd5b6103de610f93565b6040518082815260200191505060405180910390f35b34156103ff57600080fd5b610407610f99565b604051808273ffffffffffffffffffffffffffffffffffffffff1673ffffffffffffffffffffffffffffffffffffffff16815260200191505060405180910390f35b341561045457600080fd5b61045c610fbe565b6040518082815260200191505060405180910390f35b341561047d57600080fd5b6104936004808035906020019091905050610fec565b6040518082815260200191505060405180910390f35b34156104b457600080fd5b6104bc611088565b6040518082815260200191505060405180910390f35b34156104dd57600080fd5b6104e5611090565b6040518082815260200191505060405180910390f35b341561050657600080fd5b61050e611096565b604051808215151515815260200191505060405180910390f35b341561053357600080fd5b61053b6110de565b6040518082815260200191505060405180910390f35b341561055c57600080fd5b61056461110d565b6040518082815260200191505060405180910390f35b341561058557600080fd5b61058d611113565b6040518082815260200191505060405180910390f35b34156105ae57600080fd5b6105b661111b565b6040518082815260200191505060405180910390f35b34156105d757600080fd5b6105df611120565b604051808273ffffffffffffffffffffffffffffffffffffffff1673ffffffffffffffffffffffffffffffffffffffff16815260200191505060405180910390f35b341561062c57600080fd5b610658600480803573ffffffffffffffffffffffffffffffffffffffff16906020019091905050611146565b005b341561066557600080fd5b61066d611221565b604051808273ffffffffffffffffffffffffffffffffffffffff1673ffffffffffffffffffffffffffffffffffffffff16815260200191505060405180910390f35b6000816000111580156106c65750635adeb9948211155b156106d457600190506106d9565b600090505b919050565b600081635add688c111580156106f85750635b0646948211155b15610706576001905061070b565b600090505b919050565b60008061071d8484610a52565b9050610728836106af565b156107b157610758610746600254600a61124790919063ffffffff16565b621e848061127890919063ffffffff16565b61076d826006546112c990919063ffffffff16565b1115151561077a57600080fd5b61078f816006546112c990919063ffffffff16565b6006819055506107aa816008546112c990919063ffffffff16565b6008819055505b6107ba836106de565b15610844576107eb6107d8600254600a61124790919063ffffffff16565b6301f78a4061127890919063ffffffff16565b610800826007546112c990919063ffffffff16565b1115151561080d57600080fd5b610822816007546112c990919063ffffffff16565b60078190555061083d816008546112c990919063ffffffff16565b6008819055505b600360009054906101000a900473ffffffffffffffffffffffffffffffffffffffff1673ffffffffffffffffffffffffffffffffffffffff16639c1f020a86836040518363ffffffff167c0100000000000000000000000000000000000000000000000000000000028152600401808373ffffffffffffffffffffffffffffffffffffffff1673ffffffffffffffffffffffffffffffffffffffff16815260200182815260200192505050600060405180830381600087803b151561090857600080fd5b6102c65a03f1151561091957600080fd5b50505061096e81600460008873ffffffffffffffffffffffffffffffffffffffff1673ffffffffffffffffffffffffffffffffffffffff168152602001908152602001600020546112c990919063ffffffff16565b600460008773ffffffffffffffffffffffffffffffffffffffff1673ffffffffffffffffffffffffffffffffffffffff16815260200190815260200160002081905550610a0384600560008873ffffffffffffffffffffffffffffffffffffffff1673ffffffffffffffffffffffffffffffffffffffff168152602001908152602001600020546112c990919063ffffffff16565b600560008773ffffffffffffffffffffffffffffffffffffffff1673ffffffffffffffffffffffffffffffffffffffff1681526020019081526020016000208190555060019150509392505050565b600080600b5484811515610a6257fe5b04915060009050610a72836106af565b15610a8357610a8083610c07565b90505b610a8c836106de565b15610a9d57610a9a83610fec565b90505b610ace6064610ab5838561127890919063ffffffff16565b811515610abe57fe5b04836112c990919063ffffffff16565b91505092915050565b635b06469481565b610b0a610af8600254600a61124790919063ffffffff16565b62e4e1c061127890919063ffffffff16565b81565b6000809054906101000a900473ffffffffffffffffffffffffffffffffffffffff1673ffffffffffffffffffffffffffffffffffffffff163373ffffffffffffffffffffffffffffffffffffffff16141515610b6857600080fd5b610b70610bbf565b1515610b7b57600080fd5b8173ffffffffffffffffffffffffffffffffffffffff166108fc829081150290604051600060405180830381858888f193505050501515610bbb57600080fd5b5050565b6000610bec610bda600254600a61124790919063ffffffff16565b62e4e1c061127890919063ffffffff16565b600854101515610bff5760019050610c04565b600090505b90565b6000635adeb994821015610c1e57601e9050610c23565b600090505b919050565b60065481565b60085481565b635b06469442111515610c4657600080fd5b610c4e610bbf565b151515610c5a57600080fd5b600460003373ffffffffffffffffffffffffffffffffffffffff1673ffffffffffffffffffffffffffffffffffffffff16815260200190815260200160002054600360009054906101000a900473ffffffffffffffffffffffffffffffffffffffff1673ffffffffffffffffffffffffffffffffffffffff166370a08231336000604051602001526040518263ffffffff167c0100000000000000000000000000000000000000000000000000000000028152600401808273ffffffffffffffffffffffffffffffffffffffff1673ffffffffffffffffffffffffffffffffffffffff168152602001915050602060405180830381600087803b1515610d5f57600080fd5b6102c65a03f11515610d7057600080fd5b5050506040518051905010151515610d8757600080fd5b600360009054906101000a900473ffffffffffffffffffffffffffffffffffffffff1673ffffffffffffffffffffffffffffffffffffffff16638ce406a2336040518263ffffffff167c0100000000000000000000000000000000000000000000000000000000028152600401808273ffffffffffffffffffffffffffffffffffffffff1673ffffffffffffffffffffffffffffffffffffffff168152602001915050600060405180830381600087803b1515610e4357600080fd5b6102c65a03f11515610e5457600080fd5b5050503373ffffffffffffffffffffffffffffffffffffffff166108fc600560003373ffffffffffffffffffffffffffffffffffffffff1673ffffffffffffffffffffffffffffffffffffffff168152602001908152602001600020549081150290604051600060405180830381858888f193505050501515610ed657600080fd5b565b600160009054906101000a900473ffffffffffffffffffffffffffffffffffffffff1673ffffffffffffffffffffffffffffffffffffffff163373ffffffffffffffffffffffffffffffffffffffff161415610f9157600160009054906101000a900473ffffffffffffffffffffffffffffffffffffffff166000806101000a81548173ffffffffffffffffffffffffffffffffffffffff021916908373ffffffffffffffffffffffffffffffffffffffff1602179055505b565b600b5481565b6000809054906101000a900473ffffffffffffffffffffffffffffffffffffffff1681565b610fe9610fd7600254600a61124790919063ffffffff16565b621e848061127890919063ffffffff16565b81565b6000635add688c8210151561107e5762093a80635add688c018210156110155760199050611083565b62127500635add688c0182101561102f5760149050611083565b621baf80635add688c0182101561104957600f9050611083565b6224ea00635add688c0182101561106357600a9050611083565b622e2480635add688c0182101561107d5760059050611083565b5b600090505b919050565b635adeb99481565b60075481565b60006110c36110b1600254600a61124790919063ffffffff16565b62e4e1c061127890919063ffffffff16565b6009541015156110d657600190506110db565b600090505b90565b61110a6110f7600254600a61124790919063ffffffff16565b6301f78a4061127890919063ffffffff16565b81565b60095481565b635add688c81565b600081565b600160009054906101000a900473ffffffffffffffffffffffffffffffffffffffff1681565b6000809054906101000a900473ffffffffffffffffffffffffffffffffffffffff1673ffffffffffffffffffffffffffffffffffffffff163373ffffffffffffffffffffffffffffffffffffffff161415156111a157600080fd5b600073ffffffffffffffffffffffffffffffffffffffff168173ffffffffffffffffffffffffffffffffffffffff16141515156111dd57600080fd5b80600160006101000a81548173ffffffffffffffffffffffffffffffffffffffff021916908373ffffffffffffffffffffffffffffffffffffffff16021790555050565b600360009054906101000a900473ffffffffffffffffffffffffffffffffffffffff1681565b600080600083141561125c5760019150611271565b82840a905083811015151561126d57fe5b8091505b5092915050565b600080600084148061128a5750600083145b1561129857600091506112c2565b828402905060008414806112b657508284828115156112b357fe5b04145b15156112be57fe5b8091505b5092915050565b60008082840190508381101515156112dd57fe5b80915050929150505600a165627a7a72305820001587b145062f9988b94f1ab546a5a0e182e3980ddb48de0859774df6b7c9770029",
  "source": "pragma solidity ^0.4.19;\n\nlibrary SafeMath { //standart library for uint\n  function mul(uint256 a, uint256 b) internal pure returns (uint256) {\n    if (a == 0 || b == 0){\n        return 0;\n    }\n    uint256 c = a * b;\n    assert(a == 0 || c / a == b);\n    return c;\n  }\n\n  function sub(uint256 a, uint256 b) internal pure returns (uint256) {\n    assert(b <= a);\n    return a - b;\n  }\n\n  function add(uint256 a, uint256 b) internal pure returns (uint256) {\n    uint256 c = a + b;\n    assert(c >= a);\n    return c;\n  }\n\n  function pow(uint256 a, uint256 b) internal pure returns (uint256){ //power function\n    if (b == 0){\n      return 1;\n    }\n    uint256 c = a**b;\n    assert (c >= a);\n    return c;\n  }\n}\n\n//standart contract to identify owner\ncontract Ownable {\n\n  address public owner;\n\n  address public newOwner;\n\n  modifier onlyOwner() {\n    require(msg.sender == owner);\n    _;\n  }\n\n  function Ownable() public {\n    owner = msg.sender;\n  }\n\n  function transferOwnership(address _newOwner) public onlyOwner {\n    require(_newOwner != address(0));\n    newOwner = _newOwner;\n  }\n\n  function acceptOwnership() public {\n    if (msg.sender == newOwner) {\n      owner = newOwner;\n    }\n  }\n}\n\n//Abstract Token contract\ncontract OctaneumToken{\n  function setCrowdsaleContract (address) public;\n  function sendCrowdsaleTokens(address, uint256)  public;\n  function balanceOf(address) public view returns (uint256);\n  function burnContriburorTokens(address) public;\n\n\n}\n\n//Crowdsale contract\ncontract Crowdsale is Ownable{\n\n  using SafeMath for uint;\n\n\n  //CHANGE IT\n  uint decimals = 8;\n\n\n  // Token contract address\n  OctaneumToken public token;\n\n  // Constructor\n  function Crowdsale(address _tokenAddress) public{\n    token = OctaneumToken(_tokenAddress);\n    owner = msg.sender;\n\n    token.setCrowdsaleContract(this);\n  }\n  \n  //contributors variables\n  mapping (address => uint) contributorTokenBought;\n  mapping (address => uint) contributorEthSended;\n  \n\n  //Crowdsale variables\n  uint public preIcoTokensSold = 0;\n  uint public icoTokensSold = 0;\n  uint public tokensSold = 0;\n  uint public ethCollected = 0;\n\n  uint minDeposit = 0.01 ether;\n\n  uint public tokenPrice = 0.001575 ether/((uint)(10).pow(decimals)); //1.5 USD\n\n  // Buy constants\n  // uint PreIcotokenPrice = 100000000000000/((uint)(10).pow(decimals));\n  // uint icoTokenPrice = 150015000000000/((uint)(10).pow(decimals));\n\n  // PreICO constants\n  uint public constant PRE_ICO_START = 0; //23/03/2018  00:01 HNE 1521781260\n  uint public constant PRE_ICO_FINISH = 1524545940; // 23/04/2018 23:59 HNE\n\n  // Ico constants\n  uint public constant ICO_START = 1524459660; //23/04/2018 00:01 HNE \n  uint public constant ICO_FINISH = 1527137940; //23/05/2018 23:59 HNE \n\n  // PreICOConstants\n  // uint public constant PRE_ICO_MIN_CAP = 1; //CHANGE IT\n  uint public constant PRE_ICO_MAX_CAP = (uint)(2000000).mul((uint)(10).pow(decimals)); //CHANGE IT\n\n  // IcoConstants\n  //CHANGE it\n  uint public constant ICO_MIN_CAP = (uint)(15000000).mul((uint)(10).pow(decimals)); //15 000 000 $\n  uint public constant ICO_MAX_CAP = (uint)(33000000).mul((uint)(10).pow(decimals));  //33 000 000 $\n\n  //check is now ICO\n  function isPreIco(uint _time) public pure returns (bool){\n    if((PRE_ICO_START <= _time) && (_time <= PRE_ICO_FINISH)){\n      return true;\n    }\n    return false;\n  }\n\n  //check is now ICO\n  function isIco(uint _time) public pure returns (bool){\n    if((ICO_START <= _time) && (_time <= ICO_FINISH)){\n      return true;\n    }\n    return false;\n  }\n\n  \n  //fallback function (when investor send ether to contract)\n  function() public payable{\n    require(isPreIco(now) || isIco(now));\n    require(msg.value >= minDeposit);\n    require(buy(msg.sender,msg.value, now)); //redirect to func buy\n  }\n\n\n  //function buy Tokens\n  function buy(address _address, uint _value, uint _time) internal returns (bool){\n    uint tokensToSend = etherToTokens(_value, _time);\n\n    if (isPreIco(_time)){\n      require(preIcoTokensSold.add(tokensToSend) <= PRE_ICO_MAX_CAP);\n      preIcoTokensSold = preIcoTokensSold.add(tokensToSend);\n      tokensSold = tokensSold.add(tokensToSend);\n    }\n    if (isIco(_time)){\n      require(icoTokensSold.add(tokensToSend) <= ICO_MAX_CAP);\n      icoTokensSold = icoTokensSold.add(tokensToSend);\n      tokensSold = tokensSold.add(tokensToSend);\n    }\n\n    token.sendCrowdsaleTokens(_address, tokensToSend);\n    contributorTokenBought[_address] = contributorTokenBought[_address].add(tokensToSend);\n    contributorEthSended[_address] = contributorEthSended[_address].add(_value);\n\n    return true;\n  }\n\n  //convert ether to tokens\n  function etherToTokens(uint _value, uint _time) public view returns(uint res) {\n    res = _value/tokenPrice;\n    uint bonus = 0;\n\n    if (isPreIco(_time)){\n      bonus = preIcoTimeBasedBonus(_time);\n    }\n    if (isIco(_time)){\n      bonus = icoTimeBasedBonus(_time);\n    }\n\n    res = res.add(res.mul((uint)(bonus))/100);\n  }\n\n  function preIcoTimeBasedBonus(uint _time) public pure returns(uint) {\n    if (_time < PRE_ICO_FINISH){\n      return 30;\n    }\n    return 0;\n  }\n  \n\n  function icoTimeBasedBonus (uint _time) public pure returns(uint) {\n    if (_time >= ICO_START){  \n      if (_time < ICO_START + 7 days){\n       return 25;\n      }\n      if (_time < ICO_START + 14 days){\n        return 20;\n      }\n      if (_time < ICO_START + 21 days){\n        return 15;\n      }\n      if (_time < ICO_START + 28 days){\n        return 10;\n      }\n      if (_time < ICO_START + 35 days){\n        return 5;\n      }\n    }\n\n    return 0;\n  }\n\n  //Distribute ether (value in WEI)\n  function ethDistibution (address _address, uint _ether) public onlyOwner{\n    require(isIcoTrue());\n    _address.transfer(_ether);\n  }\n  \n  function isIcoTrue () public view returns(bool) {\n    if(tokensSold >= ICO_MIN_CAP){\n      return true;\n    }\n    return false;\n  }\n  \n\n\n  function isIcoAchieved () public view returns(bool) {\n    if (ethCollected >= ICO_MIN_CAP){\n      return true;\n    }\n    return false;\n  }\n  \n  function refund() public {\n    require(now > ICO_FINISH);\n    require(!isIcoTrue());\n    require(token.balanceOf(msg.sender) >= contributorTokenBought[msg.sender]);\n\n    token.burnContriburorTokens(msg.sender);\n    msg.sender.transfer(contributorEthSended[msg.sender]);\n  }\n  \n \n}",
  "sourcePath": "/home/romuch/Desktop/OctaneumTruffle/contracts/OctaneumCrowdsale.sol",
  "compiler": {
    "name": "solc",
    "version": "0.4.19+commit.c4cbbb05.Emscripten.clang"
  },
  "schemaVersion": "1.0.1",
  "updatedAt": "2018-02-19T14:02:10.240Z"
}